:020000040800F2
:10000000008000203D680008090900080B0900086D
:100010000D0900080F090008110900080000000080
:1000200000000000000000000000000071650008F2
:100030001309000800000000116600082B5E00088C
:100040008D6800088D6800088D6800088D680008BC
:100050008D6800088D6800088D6800088D680008AC
:100060008D6800088D6800088D6800088D6800089C
:100070008D6800088D6800088D6800088D6800088C
:100080008D680008000000008D6800088D68000879
:100090008D6800088D6800088D6800088D6800086C
:1000A0008D6800088D6800088D6800088D6800085C
:1000B0008D6800088D680008150900088D68000823
:1000C0008D6800088D6800088D6800088D6800083C
:1000D0008D680008250900088D6800088D680008F3
:1000E0008D6800088D6800088D6800088D6800081C
:1000F0008D6800088D6800088D6800080000000009
:10010000000000008D680008000000008D680008F5
:100110008D680008000000008D6800088D680008E8
:100120008D6800088D6800088D6800088D680008DB
:100130008D68000800000000000000008D680008C5
:100140008D6800088D6800080000000000000000B5
:10015000000000000000000000000000000000009F
:100160000000000000000000000000008D68000892
:100170008D68000800000000000000000000000082
:10018000000000008D680008000000000000000072
:10019000000000000000000000000000000000005F
:1001A00000000000000000008D6800088D68000855
:1001B0008D6800088D6800088D6800080000000048
:1001C000000000008D680008000000000000000032
:0801D0008D6800088D6800082D
:1001E00010B5054C237833B9044B13B10448AFF371
:1001F00000800123237010BD780000200000000063
:100200003C7D000808B5034B1BB103490348AFF31D
:10021000008008BD000000007C0000203C7D00083C
:1002200001F0FF01102A2BDB10F0070F08D010F8A7
:10023000013B013A8B422DD010F0070F42B3F6D1AB
:10024000F0B441EA012141EA014122F007047FF0C4
:1002500000070023F0E80256083C85EA010586EA1B
:10026000010685FA47F5A3FA87F586FA47F6A5FA57
:1002700087F68EB9EED1F0BC01F0FF0102F0070263
:1002800032B110F8013B013A83EA010313B1F8D10E
:100290000020704701387047002D06BF35460338EF
:1002A000073815F0010F07D1013015F4807F02BF28
:1002B000013015F4C03F0130F0BC0138704700BF79
:1002C00053B94AB9002908BF00281CBF4FF0FF31BD
:1002D0004FF0FF3000F074B9ADF1080C6DE904CEB9
:1002E00000F006F8DDF804E0DDE9022304B0704711
:1002F0002DE9F047089D04468E46002B4DD18A42D9
:10030000944669D9B2FA82F252B101FA02F3C2F10B
:10031000200120FA01F10CFA02FC41EA030E94409C
:100320004FEA1C48210CBEFBF8F61FFA8CF708FBBD
:1003300016E341EA034306FB07F199420AD91CEB95
:10034000030306F1FF3080F01F81994240F21C81C7
:10035000023E63445B1AA4B2B3FBF8F008FB10330F
:1003600044EA034400FB07F7A7420AD91CEB040444
:1003700000F1FF3380F00A81A74240F20781644414
:10038000023840EA0640E41B00261DB1D440002399
:10039000C5E900433146BDE8F0878B4209D9002DFD
:1003A00000F0EF800026C5E9000130463146BDE887
:1003B000F087B3FA83F6002E4AD18B4202D38242F1
:1003C00000F2F980841A61EB030301209E46002DA0
:1003D000E0D0C5E9004EDDE702B9FFDEB2FA82F2F5
:1003E000002A40F09280A1EB0C014FEA1C471FFA53
:1003F0008CFE0126200CB1FBF7F307FB131140EA3A
:1004000001410EFB03F0884208D91CEB010103F106
:10041000FF3802D2884200F2CB804346091AA4B2C8
:10042000B1FBF7F007FB101144EA01440EFB00FE9C
:10043000A64508D91CEB040400F1FF3102D2A64501
:1004400000F2BB800846A4EB0E0440EA03409CE7A0
:10045000C6F12007B34022FA07FC4CEA030C20FA4D
:1004600007F401FA06F31C43F9404FEA1C4900FA6D
:1004700006F3B1FBF9F8200C1FFA8CFE09FB1811EA
:1004800040EA014108FB0EF0884202FA06F20BD95D
:100490001CEB010108F1FF3A80F08880884240F2AD
:1004A0008580A8F102086144091AA4B2B1FBF9F0F1
:1004B00009FB101144EA014100FB0EFE8E4508D9EC
:1004C0001CEB010100F1FF346CD28E456AD9023871
:1004D000614440EA0840A0FB0294A1EB0E01A14256
:1004E000C846A64656D353D05DB1B3EB080261EBC4
:1004F0000E0101FA07F722FA06F3F1401F43C5E99E
:10050000007100263146BDE8F087C2F12003D840D3
:100510000CFA02FC21FA03F3914001434FEA1C4715
:100520001FFA8CFEB3FBF7F007FB10360B0C43EA07
:10053000064300FB0EF69E4204FA02F408D91CEBB7
:10054000030300F1FF382FD29E422DD902386344B5
:100550009B1B89B2B3FBF7F607FB163341EA034155
:1005600006FB0EF38B4208D91CEB010106F1FF38A4
:1005700016D28B4214D9023E6144C91A46EA00469B
:1005800038E72E46284605E70646E3E61846F8E62D
:100590004B45A9D2B9EB020864EB0C0E0138A3E776
:1005A0004646EAE7204694E74046D1E7D0467BE757
:1005B000023B614432E7304609E76444023842E7CF
:1005C000704700BF08B502F0A3F800F04BF800F048
:1005D000D7F802F09FFC00F0DFF900F053FD002097
:1005E00000F02EFC00F034F9114C204606F010FA11
:1005F000104806F00DFA104806F00AFA0F4806F007
:1006000007FA204606F004FA0D4A0021084600F0D9
:1006100055FD03F00FFC00F01BF90A4806F0F8F94D
:1006200005F010FC03F02CFE05F01EFCFEE700BFF9
:10063000547D00087C7D0008A07D0008B47D000882
:10064000D47D0008F07D000808B50268034B9A428B
:1006500000D008BD02F06CF8FBE700BF00080040C6
:1006600072B6FEE72DE9F0418AB0002405940694A5
:100670000794089409943E4BDA6C42F00402DA6461
:10068000DA6C02F004020092009ADA6C42F0200266
:10069000DA64DA6C02F020020192019ADA6C42F01C
:1006A0000102DA64DA6C02F001020292029ADA6C58
:1006B00042F00202DA64DA6C02F002020392039A58
:1006C000DA6C42F00802DA64DB6C03F0080304938E
:1006D000049BDFF8A88022464FF6FF71404602F0E7
:1006E0003CFB244E224640F22131304602F035FBDD
:1006F00001224FF48061304602F02FFB22464FF476
:1007000080714FF0904002F028FB1B4F22460421DD
:10071000384602F022FB4FF6FF730593012506953C
:100720000794089405A9404602F026FA40F2217386
:10073000059306950794089405A9304602F01CFA23
:100740004FF48073059306950794089405A94FF01C
:10075000904002F011FA042305930695079408943B
:1007600005A9384602F008FA0AB0BDE8F08100BFDA
:100770000010024000040048000C00480008004837
:1007800008B51748174B03604FF4E133436000236B
:100790008360C36003610C2242618361C3610362B1
:1007A000436201F02BFE70B900210D4801F066FF95
:1007B00060B900210A4801F086FF50B9084801F0ED
:1007C0003EFF48B908BDFFF74BFFEDE7FFF748FFD5
:1007D000EFE7FFF745FFF1E7FFF742FFF2E700BF62
:1007E000C00000200038014010B588B000240394F8
:1007F0000494059406940794144B1A6E42F48042B4
:100800001A661A6E02F480420192019ADA6C42F082
:100810000102DA64DB6C03F001030293029B4FF4E4
:10082000C0630393022304930723079303A94FF0A4
:10083000904002F0A1F922460521252002F01AFB82
:10084000252002F04FFB08B010BD00BF0010024091
:1008500008B501220249034801F0A2FE08BD00BF0D
:1008600054010020C000002038B502681A4B9A429B
:1008700000D038BD184BDB6913F0800FFAD0174B4E
:100880001B78154A93620A2B0BD00D2B09D0144A02
:1008900012781E2A08D8501C1149087011498B542F
:1008A00002E00F4B1B782BB901220C490E4801F0D6
:1008B00077FEDEE70B4D0024EC5423462246294602
:1008C0000A48006805F03FFC20222146284606F031
:1008D00011F8034B1C70E7E7003801405401002079
:1008E000BC0000209C000020C0000020D00100209F
:1008F00010B514464FF0FF3392B2024801F0B0FC3D
:10090000204610BDC0000020FEE7FEE7FEE7FEE740
:10091000FEE7704708B5024800F01EFC08BD00BFA6
:10092000F001002008B5024800F0FAFD08BD00BF44
:10093000C000002000B583B00E4B1A6E42F00102D9
:100940001A661A6E02F001020092009A9A6D42F045
:1009500080529A659B6D03F080530193019B0022A6
:100960000F216FF0010002F085FA00F087FD03B05F
:100970005DF804FB0010024010B5064C0122042172
:10098000204602F0EAF900220421204602F0E5F9AF
:1009900010BD00BF000C004808B501224FF47F4194
:1009A000024802F0DAF9FFF7E7FF08BD0008004847
:1009B00008B5072802D9FFF7DFFF08BD0022034B67
:1009C00033F81010024802F0C8F9F4E7007E00087E
:1009D0000008004808B5072802D9FFF7CDFF08BD79
:1009E0000122034B33F81010024802F0B6F9F4E785
:1009F000007E00080008004810B4184B9A6A42F4C0
:100A000000729A629A6A42F480729A629A6942F01B
:100A100020029A61124C60619A6A42F020029A6246
:100A200000BF00BF00BF9A6942F020029A619A6934
:100A300042F480729A6161619A6A42F020029A627D
:100A400000BF00BF00BF9A6942F020029A619A6914
:100A500042F480729A615DF8044B704700040048CC
:100A60000008004808B501210020FFF7C5FF00215C
:100A70000120FFF7C1FF41F290711020FFF7BCFF8A
:100A80004FF41C516020FFF7B7FF01216120FFF7F1
:100A9000B3FF02214620FFF7AFFF48F210011320F9
:100AA000FFF7AAFF48F2FE011220FFF7A5FF4FF45F
:100AB000A0610220FFF7A0FF41F230010320FFF701
:100AC0009BFF40F203313020FFF796FF40F20331E5
:100AD0003120FFF791FF40F203313220FFF78CFF06
:100AE0004FF440713320FFF787FF03213420FFF7D5
:100AF00083FF40F203313520FFF77EFF14213620BB
:100B0000FFF77AFF40F203313720FFF775FF40F21D
:100B100003313820FFF770FF40F203313920FFF72F
:100B20006BFF4FF440713A20FFF766FF03213B2033
:100B3000FFF762FF40F203313C20FFF75DFF4FF407
:100B4000A0513D20FFF758FF4FF400719220FFF7AE
:100B500053FF40F203319320FFF74EFF40F60D01A3
:100B60009020FFF749FF41F218010320FFF744FFEF
:100B700040F273110720FFF73FFF08BD08B543F2AD
:100B80000801E320FFF738FF1221E720FFF734FFC9
:100B900041F23121EF20FFF72FFF00210120FFF765
:100BA0002BFF4FF4E0610220FFF726FF41F23001F6
:100BB0000320FFF721FF00210420FFF71DFF40F273
:100BC00007210820FFF718FF00210920FFF714FF75
:100BD00000210A20FFF710FF00210C20FFF70CFF77
:100BE00000210D20FFF708FF00210F20FFF704FF71
:100BF00000211020FFF700FF07211120FFF7FCFE66
:100C000000211220FFF7F8FE00211320FFF7F4FE69
:100C1000C82001F09FFD41F290611020FFF7ECFE2B
:100C200040F227211120FFF7E7FE322001F092FD6C
:100C30001D211220FFF7E0FE322001F08BFD4FF462
:100C400000611320FFF7D8FE14212920FFF7D4FEFE
:100C50000B212B20FFF7D0FE322001F07BFD00217D
:100C60002020FFF7C9FE00212120FFF7C5FE072144
:100C70003020FFF7C1FE40F207713120FFF7BCFEC4
:100C800006213220FFF7B8FE40F204713520FFF74D
:100C9000B3FE41F604713620FFF7AEFE0421372083
:100CA000FFF7AAFE00213820FFF7A6FE40F20671EA
:100CB0003920FFF7A1FE40F201713C20FFF79CFEB6
:100CC0000F213D20FFF798FE00215020FFF794FEF2
:100CD000EF215120FFF790FE00215220FFF78CFEFC
:100CE00040F23F115320FFF787FE4FF41C51602064
:100CF000FFF782FE01216120FFF77EFE00216A20BE
:100D0000FFF77AFE00218020FFF776FE0021812088
:100D1000FFF772FE00218220FFF76EFE0021832084
:100D2000FFF76AFE00218420FFF766FE0021852080
:100D3000FFF762FE10219020FFF75EFE0021922057
:100D4000FFF75AFE03219320FFF756FE4FF48871F8
:100D50009520FFF751FE00219720FFF74DFE00215F
:100D60009820FFF749FE41F218010320FFF744FEE7
:100D700040F273110720FFF73FFE08BD10B50C4687
:100D800001462020FFF738FE21462120FFF734FEE0
:100D900010BD0000134B9A6A42F400729A629A6A7C
:100DA00042F480729A629A6942F020029A610E4A75
:100DB000222151619A6A42F020029A6200BF00BF6C
:100DC00000BF9A6942F020029A619A6942F48072E7
:100DD0009A6100BF00BF00BF9A6942F400729A6135
:100DE000704700BF0004004800080048124B9A6A90
:100DF00042F400729A629A6942F480729A619A6926
:100E000042F020029A610D4A50619A6A42F0200233
:100E10009A6200BF00BF00BF9A6942F020029A6147
:100E20009A6942F480729A6100BF00BF00BF9A695C
:100E300042F400729A6170470004004800080048BC
:100E400038B5054600210846FFF798FFFFF7A2FFD7
:100E5000002403E02846FFF7C9FF0134B4F5963FAC
:100E6000F8D338BD2DE9F041074688461646FFF70E
:100E700085FF00251AE0114B188880B2FFF7B6FFF6
:100E800001340F2C0BD836F81530234113F0010F25
:100E9000F1D10B4B188880B2FFF7A8FFF0E70137BC
:100EA000FFB241463846FFF769FF0135172D03D8D9
:100EB000FFF770FF0024E4E7BDE8F0815601002051
:100EC0000000002008B5203AD2B202EB4202034BE8
:100ED00003EB0212FFF7C6FF08BD00BF287E000823
:100EE000F8B507460D4640F23F14002607E02146BC
:100EF0003846FFF7E7FF103CA4B2013501362A78E7
:100F00000AB1132EF3D9F8BD08B50249FFF7E8FF7F
:100F100008BD00BF107E000800B587B00023019314
:100F20000293039304930593FF23019303230493F4
:100F300001A9034801F020FE07B05DF804FB00BFE3
:100F40000008004800B587B0002301930293039383
:100F500004930593FF230193012302930323049336
:100F600001A9034801F008FE07B05DF804FB00BFCB
:100F70000008004838B51B4CA36A43F40073A36211
:100F8000A36A43F48073A362A36943F02003A361BF
:100F9000154D6861A36A43F02003A36200BF00BF40
:100FA00000BFA36943F02003A361A36943F48073E6
:100FB000A361FFF7B1FF4FF090439A6A42F4807249
:100FC0009A6200BF00BF00BF2D69EDB29A6942F47A
:100FD00080729A61FFF7B6FFA36943F40073A361BF
:100FE000284638BD000400480008004870B588B0A5
:100FF0000024039404940594069407941F4BDA6C20
:1010000042F00402DA64DA6C02F004020092009A00
:10101000DA6C42F00102DA64DA6C02F00102019249
:10102000019ADA6C42F00202DA64DB6C03F002032C
:101030000293029B4FF44873039301260496104DCC
:1010400003A9284601F098FD4FF48073039304969A
:101050000694059403A94FF0904001F08DFDFFF731
:1010600071FF4FF09042936943F480739361AB69D1
:1010700043F40873AB6108B070BD00BF00100240BC
:101080000004004808B5FFF7B1FF0020FFF772FF2A
:10109000094B18801B889BB248F23022934207D03C
:1010A000FFF76CFD0020FFF765FF034B188008BDBC
:1010B000FFF7D8FCF6E700BF5801002008B5084646
:1010C0001146C0B2FFF70CFF08BD704790F83D30E5
:1010D000DBB2012B32D1022380F83D300268D368A5
:1010E00043F00103D3600368174A934218D0B3F169
:1010F000804F15D0A2F59432934211D002F5806250
:1011000093420DD002F59632934209D002F5406227
:10111000934205D01A6842F001021A60002070471D
:1011200099680A4A0A40062A0AD0B2F5803F09D0D7
:101130001A6842F001021A600020704701207047CF
:101140000020704700207047002C0140070001007C
:10115000704770477047704770B505460368DE6892
:101160001C6914F0020F10D016F0020F0DD06FF0B2
:1011700002021A610123037703689B6913F0030FCE
:101180007CD0FFF7E6FF00232B7714F0040F12D07A
:1011900016F0040F0FD02B686FF004021A610223BF
:1011A0002B772B689B6913F4407F6DD02846FFF79F
:1011B000D0FF00232B7714F0080F12D016F0080F81
:1011C0000FD02B686FF008021A6104232B772B686D
:1011D000DB6913F0030F5ED02846FFF7BAFF002348
:1011E0002B7714F0100F12D016F0100F0FD02B68C1
:1011F0006FF010021A6108232B772B68DB6913F458
:10120000407F4FD02846FFF7A4FF00232B7714F030
:10121000010F02D016F0010F4BD114F4025F02D07F
:1012200016F0800F4DD114F4807F02D016F0800F9D
:101230004FD114F0400F02D016F0400F51D114F0EE
:10124000200F02D016F0200F53D114F4801F02D0CB
:1012500016F4801F55D114F4001F02D016F4001F9D
:1012600057D114F4800F02D016F4800F59D114F422
:10127000000F02D016F4000F5BD170BDFFF768FFBE
:101280002846FFF767FF7EE72846FFF761FF2846FD
:10129000FFF760FF8DE72846FFF75AFF2846FFF764
:1012A00059FF9CE72846FFF753FF2846FFF752FFF8
:1012B000ABE72B686FF001021A612846FFF7C4F90B
:1012C000ABE72B686FF402521A61284600F0CFF8A2
:1012D000A9E72B686FF480721A61284600F0C8F8FD
:1012E000A7E72B686FF040021A612846FFF733FF2B
:1012F000A5E72B686FF020021A61284600F0B6F8C7
:10130000A3E72B686FF480121A61284600F0B1F849
:10131000A1E72B686FF400121A61284600F0AAF8C2
:101320009FE72B686FF480021A61284600F0A3F84B
:101330009DE72B686FF400021A61284600F09CF8C4
:101340009BE700000368304A90420ED0B0F1804F16
:101350000BD0A2F59432904207D002F58062904201
:1013600003D002F59632904203D123F070034A680D
:101370001343254A90421AD0B0F1804F17D0A2F5FE
:101380009432904213D002F5806290420FD002F561
:10139000963290420BD002F54062904207D002F59F
:1013A0008062904203D002F58062904203D123F420
:1013B0004073CA68134323F080034A6913430360F0
:1013C0008B68C3620B6883620F4B98420FD003F5A2
:1013D000006398420BD003F54063984207D003F5B1
:1013E0008063984203D003F58063984201D10B6972
:1013F000036301234361036913F0010F03D0036901
:1014000023F0010303617047002C014060B310B565
:10141000044690F83D3013B3022384F83D30214652
:1014200051F8040BFFF78EFF012384F8483084F84D
:101430003E3084F83F3084F8403084F8413084F8FE
:10144000423084F8433084F8443084F8453084F8DE
:10145000463084F8473084F83D30002010BD80F8D5
:101460003C30FFF732FED7E70120704770477047E6
:10147000704770477047704770470000024A936892
:1014800043F480439360704700700040026852E864
:10149000003F23F4907342E800310029F6D102683E
:1014A00002F1080353E8003F23F0805323F00103C7
:1014B000083242E800310029F1D1C36E012B06D079
:1014C0002023C0F88C300023C3664367704702684E
:1014D00052E8003F23F0100342E800310029F6D122
:1014E000EEE7704708B5026852E8003F23F040037A
:1014F00042E800310029F6D12023C0F888300023CB
:101500008367FFF7EEFF08BD704708B5806A0023C8
:10151000A0F85E30A0F85630FFF7F6FF08BD704720
:1015200070B504460168CB6908688D6840F60F0203
:101530001A4008D113F0200F05D010F0200F34D13D
:1015400015F0805F31D12AB1994A2A4033D1994EA2
:10155000304230D1E26E012A00F0C68013F4801FC1
:1015600003D015F4800F40F0658113F0800F07D091
:1015700010F0800F40F0658115F4000F40F061819C
:1015800013F0400F03D010F0400F40F0618113F4CE
:10159000000F03D010F0804F40F05E8113F0807F89
:1015A00002D00028C0F25C8170BD636F002BFBD0BD
:1015B00020469847F8E713F0010F09D010F4807F18
:1015C00006D001260E62D4F890103143C4F8901072
:1015D00013F0020F0BD015F0010F08D0216802267E
:1015E0000E62D4F8901041F00401C4F8901013F08A
:1015F000040F0BD015F0010F08D0216804260E62ED
:10160000D4F8901041F00201C4F8901013F0080FC4
:101610000BD010F0200F00D13AB1226808211162DE
:10162000D4F890200A43C4F8902013F4006F0CD033
:1016300010F0806F09D022684FF400611162D4F875
:10164000902042F02002C4F89020D4F89020002A84
:10165000AAD013F0200F09D010F0200F02D115F0FE
:10166000805F03D0636F0BB120469847D4F8902079
:1016700023689B6813F0400F02D112F0280F2CD082
:101680002046FFF703FF23689B6813F0400F20D02C
:10169000226802F1080353E8003F23F040030832B8
:1016A00042E800310029F3D1D4F880306BB1424ACE
:1016B0009A63D4F8800001F08BFB00283FF474AFEC
:1016C000D4F88000836B98476EE72046FFF71CFF35
:1016D0006AE72046FFF718FF66E72046FFF714FF8A
:1016E0000023C4F890305FE713F0100F3FF436AFDB
:1016F00010F0100F3FF432AF10230B6223689B6889
:1017000013F0400F5AD0D4F8802013685B689BB266
:10171000002B3FF449AFB4F85C1099427FF644AF18
:10172000A4F85E3013681B6813F0200F32D12268D2
:1017300052E8003F23F4807342E800310029F6D1DB
:10174000226802F1080353E8003F23F00103083246
:1017500042E800310029F3D1226802F1080353E87E
:10176000003F23F04003083242E800310029F3D162
:101770002023C4F88C300023E366226852E8003F3F
:1017800023F0100342E800310029F6D1D4F880009C
:1017900001F0E8FA02232367B4F85C10B4F85E3075
:1017A0009BB2C91A89B22046FFF7B9FEFCE600BF1A
:1017B00001000010200100040B150008B4F85C10B3
:1017C000B4F85E309BB2C91A89B2B4F85E309BB2ED
:1017D000002B3FF4E9AE00293FF4E6AE226852E860
:1017E000003F23F4907342E800300028F6D12268CD
:1017F00002F1080353E8003F23F0805323F0010374
:10180000083242E800300028F1D12023C4F88C309F
:101810000023E3666367226852E8003F23F0100369
:1018200042E800300028F6D1022323672046FFF764
:1018300076FEB9E64FF480130B62204600F0FCFE02
:10184000B2E6A36F002B3FF4AFAE20469847ABE65D
:101850002046FFF747FEA7E6204600F0EFFEA3E68E
:10186000204600F0EAFE9FE608B5B0F86030D0F8F8
:101870008C20222A05D00268936943F00803936103
:1018800008BD0268516ADBB2826D0B401370836D34
:1018900001338365B0F85E309BB2013B9BB2A0F888
:1018A0005E30B0F85E309BB2002BE9D1026852E89E
:1018B000003F23F4907342E800310029F6D102681A
:1018C00002F1080353E8003F23F00103083242E825
:1018D00000310029F3D12023C0F88C300023436766
:1018E00003670368164A93420CD05B6813F4000F39
:1018F00008D0026852E8003F23F0806342E80031DC
:101900000029F6D1C36E012B16D10023C3660268ED
:1019100052E8003F23F0100342E800310029F6D1DD
:101920000368DA6912F0100F01D010221A62B0F8C1
:101930005C10FFF7F4FDA3E7FEF796FFA0E700BFFA
:101940000080004008B5B0F86020D0F88C30222B21
:1019500005D00268936943F00803936108BD0368EA
:101960005B6A816D13400B80836D02338365B0F831
:101970005E309BB2013B9BB2A0F85E30B0F85E30A7
:101980009BB2002BEAD1026852E8003F23F4907327
:1019900042E800310029F6D1026802F1080353E859
:1019A000003F23F00103083242E800310029F3D15F
:1019B0002023C0F88C300023436703670368164A6E
:1019C00093420CD05B6813F4000F08D0026852E811
:1019D000003F23F0806342E800310029F6D1C36E56
:1019E000012B16D10023C366026852E8003F23F0A2
:1019F000100342E800310029F6D10368DA6912F0D9
:101A0000100F01D010221A62B0F85C10FFF787FDAA
:101A1000A4E7FEF729FFA1E7008000402DE9F84385
:101A2000B0F860600368DD69D3F80090D3F80880EF
:101A3000D0F88C20222A05D09A6942F008029A61D7
:101A4000BDE8F8830446B0F8687008E0D4F8903038
:101A5000002B4CD1B4F85E309BB2002B4ED0002F3F
:101A600000F09A8015F0200F00F096802368596AE4
:101A7000F3B2A26D0B401370A36D0133A365B4F8EC
:101A80005E309BB2013B9BB2A4F85E302368DD69F7
:101A900015F0070FDED015F0010F09D019F4807F83
:101AA00006D001221A62D4F890301343C4F8903063
:101AB00015F0020F0BD018F0010F08D02368022296
:101AC0001A62D4F8903043F00403C4F8903015F053
:101AD000040FBBD018F0010FB8D0236804221A629B
:101AE000D4F8903043F00203C4F89030AEE72046BB
:101AF000FFF70AFD0023C4F89030ABE7226852E8F4
:101B0000003F23F4807342E800310029F6D12268B7
:101B100002F1080353E8003F23F0805323F0010350
:101B2000083242E800310029F1D12023C4F88C307A
:101B30000023636723672368294A934203D05B68C5
:101B400013F4000F06D1E36E012B0DD02046FEF7F3
:101B50008BFE84E7226852E8003F23F0806342E86E
:101B600000310029F6D1EEE70023E366226852E84F
:101B7000003F23F0100342E800310029F6D123682A
:101B8000DA6912F0100F01D010221A62B4F85C105A
:101B90002046FFF7C4FC62E7B4F85E309BB2002B2E
:101BA0003FF44EAFB4F868209A427FF649AF2268FE
:101BB00002F1080353E8003F23F08053083242E863
:101BC00000310029F3D1074B6367226852E8003FD8
:101BD00043F0200342E800310029F6D130E700BF8E
:101BE00000800040691800082DE9F843B0F86060F3
:101BF0000368DD69D3F80090D3F80880D0F88C2012
:101C0000222A05D09A6942F008029A61BDE8F88359
:101C10000446B0F8687008E0D4F89030002B4BD13F
:101C2000B4F85E309BB2002B4DD0002F00F09980AD
:101C300015F0200F00F0958023685B6AA26D334099
:101C40001380A36D0233A365B4F85E309BB2013BF1
:101C50009BB2A4F85E302368DD6915F0070FDFD072
:101C600015F0010F09D019F4807F06D001221A6205
:101C7000D4F890301343C4F8903015F0020F0BD015
:101C800018F0010F08D0236802221A62D4F89030AD
:101C900043F00403C4F8903015F0040FBCD018F0E2
:101CA000010FB9D0236804221A62D4F8903043F0AF
:101CB0000203C4F89030AFE72046FFF725FC00236D
:101CC000C4F89030ACE7226852E8003F23F48073F8
:101CD00042E800310029F6D1226802F1080353E8F6
:101CE000003F23F0805323F00103083242E8003123
:101CF0000029F1D12023C4F88C30002363672367C7
:101D00002368294A934203D05B6813F4000F06D17D
:101D1000E36E012B0DD02046FEF7A6FD85E7226875
:101D200052E8003F23F0806342E800310029F6D1F9
:101D3000EEE70023E366226852E8003F23F0100339
:101D400042E800310029F6D12368DA6912F0100F59
:101D500001D010221A62B4F85C102046FFF7DFFBB6
:101D600063E7B4F85E309BB2002B3FF44FAFB4F89A
:101D700068209A427FF64AAF226802F1080353E8CE
:101D8000003F23F08053083242E800310029F3D1AC
:101D9000064B6367226852E8003F43F0200342E8A5
:101DA00000310029F6D131E70080004045190008D4
:101DB00070B504460168836802691343426913439E
:101DC000C269134308688B4A024013430B602268C0
:101DD000536823F44053E1680B435360A1692268C0
:101DE000854B9A4201D0236A1943936823F06E43CE
:101DF00023F430630B4393602268D36A23F00F030C
:101E0000616A0B43D36223687C4A934223D07C4AA5
:101E1000934234D07B4A93424AD07B4A934259D072
:101E2000754A934268D0102273498B4200F0958026
:101E3000E069B0F5004F00F0D280082A00F24F812F
:101E4000DFE812F01201340110014D0137014D019C
:101E50004D014D013A0102F55842D2F8882002F0B6
:101E60000302032A09D8DFE802F002045C0601221B
:101E7000DAE70422D8E70822D6E71022D4E702F5F1
:101E8000E632D2F8882002F00C020C2A0ED8DFE8E5
:101E900002F0070D0D0D090D0D0D4A0D0D0D0B0076
:101EA0000022C1E70422BFE70822BDE71022BBE7FA
:101EB00002F5E432D2F8882002F03002202A34D031
:101EC00004D8A2B3102A34D10422ADE7302A32D18B
:101ED0000822A9E702F5E232D2F8882002F0C00217
:101EE000802A2AD004D852B3402A2AD104229BE760
:101EF000C02A28D1082297E702F5C832D2F88820F4
:101F000002F44062B2F5006F1FD005D8FAB1B2F505
:101F1000806F1ED1042287E7B2F5406F1BD10822E3
:101F200082E7022280E702227EE702227CE700228B
:101F30007AE7102278E7102276E7022274E700227F
:101F400072E7102270E710226EE702226CE700228F
:101F50006AE7102268E7102266E7082A00F2AF80DD
:101F6000DFE802F008AD3BAD38ADADAD05004FF494
:101F7000004004E000F04CFC002800F0A280626AFF
:101F8000224B33F81220B0FBF2F3656805EB4501F4
:101F9000994200F29880B3EB053F00F2968000264C
:101FA00033463146FEF78CF9090241EA106100021E
:101FB0006B08C0182A46334641F10001FEF780F94C
:101FC000A0F54072124B9A4200F281802368D860DB
:101FD000304662E000F0D2FBCEE70E48CFE7082A99
:101FE00077D8DFE802F0193905763C7676761D0061
:101FF000084815E0F369FFCF008000400038014039
:102000000044004000480040004C0040F88F0008A9
:10201000FFFC0F000024F40000F0FAFB00285AD067
:10202000626A324B33F81230B0FBF3F06268530847
:1020300003EB4000B0FBF2F0A0F110024FF6EF739B
:102040009A424AD883B223F00F03C0F342001843E8
:102050002368D860002020E000F0ECFBDEE700F011
:102060008DFBDBE7224803E000F0D2FB002838D0EC
:10207000626A1E4B33F81230B0FBF3F0636800EB7A
:102080005300B0FBF3F0A0F110024FF6EF739A4249
:1020900029D8236880B2D86000200123A4F86A30D0
:1020A000A4F8683000236367A36770BD00F0C2FB2B
:1020B000DCE700F063FBD9E74FF40040D8E70120EC
:1020C000EBE70020E9E70120E7E70120E5E7012051
:1020D000E3E70120E1E70020DFE70120DDE7012061
:1020E000DBE70020D9E70120D7E700BFF88F000821
:1020F0000024F400836A13F0080F06D002685368C6
:1021000023F40043816B0B435360836A13F0010F88
:1021100006D00268536823F40033C16A0B4353604E
:10212000836A13F0020F06D00268536823F48033E9
:10213000016B0B435360836A13F0040F06D00268EF
:10214000536823F48023416B0B435360836A13F07D
:10215000100F06D00268936823F48053C16B0B43C1
:102160009360836A13F0200F06D00268936823F40B
:102170000053016C0B439360836A13F0400F0AD045
:102180000268536823F48013416C0B435360436C23
:10219000B3F5801F0BD0836A13F0800F06D002685E
:1021A000536823F40023C16C0B43536070470268EB
:1021B000536823F4C003816C0B435360EBE72DE9B4
:1021C000F84305460E4617469946DDF820802C68F0
:1021D000E46936EA04030CBF4FF0010C4FF0000C29
:1021E000BC4536D1B8F1FF3FF1D000F0ADFAA0EB1D
:1021F0000900404530D8B8F1000F2FD02B681A687D
:1022000012F0040FE3D0802EE1D0402EDFD0DA6947
:1022100012F0080F11D1DA6912F4006FD7D04FF421
:1022200000621A622846FFF731F92023C5F8903082
:10223000002385F8843003200CE008241C62284623
:10224000FFF724F9C5F89040002385F88430012079
:1022500000E00020BDE8F8830320FBE70320F9E756
:102260002DE9F04182B01E46D0F88830202B5AD19B
:1022700004460D469046002959D00AB9012053E082
:102280000023C0F890302123C0F8883000F05CFAB9
:102290000746A4F85480A4F85680A368B3F5805F7D
:1022A00002D04FF0000816E0236943B34FF0000856
:1022B00011E02023C4F88830032035E038F8023BD1
:1022C0002268C3F308039362B4F8562092B2013A2D
:1022D00092B2A4F85620B4F856309BB293B100964F
:1022E0003B46002280212046FFF769FF0028E0D10D
:1022F000002DE3D015F8012B23689A62E4E7A84685
:102300000025E8E700963B46002240212046FFF7E3
:1023100056FF18B92023C4F8883005E02023C4F8FC
:102320008830032000E0022002B0BDE8F0810120E7
:10233000FAE730B583B004460023C0F8903000F0CF
:1023400003FA05462268126812F0080F10D12368BC
:102350001B6813F0040F28D12023C4F88830C4F878
:102360008C300020E066206784F8840003B030BD24
:102370006FF07E430093034600224FF40011204685
:10238000FFF71DFF0028E2D0226852E8003F23F04B
:10239000800342E800310029F6D12023C4F88830B8
:1023A000002384F884300320E0E76FF07E4300933D
:1023B0002B4600224FF480012046FFF700FF002843
:1023C000CAD0226852E8003F23F4907342E80031FB
:1023D0000029F6D1226802F1080353E8003F23F0F8
:1023E0000103083242E800310029F3D12023C4F868
:1023F0008C30002384F884300320B7E778B310B51D
:102400000446D0F888300BB32423C4F888302268FF
:10241000136823F001031360A36AE3B92046FFF7B2
:10242000C7FC012811D02268536823F490435360FD
:102430002268936823F02A0393602268136843F0AC
:10244000010313602046FFF774FF10BD80F884304D
:10245000FEF7CAF9D8E72046FFF74CFEDEE7012079
:102460007047000010B48165A0F85C20A0F85E20E1
:10247000002343678368B3F5805F06D0A3B903697F
:1024800073B9FF23A0F8603014E0036923B940F268
:10249000FF13A0F860300DE0FF23A0F8603009E0E2
:1024A0007F23A0F8603005E0B3F1805F2ED00023D9
:1024B000A0F860300023C0F890302223C0F88C30A0
:1024C000016801F1080353E8003F43F001030831BC
:1024D00041E80034002CF3D1436EB3F1005F1FD00C
:1024E0008368B3F5805F43D0294B43670369002BB2
:1024F00044D0026852E8003F43F4907342E8003150
:102500000029F6D100205DF8044B704703691BB920
:102510007F23A0F86030CDE73F23A0F86030C9E703
:10252000B0F868309342DBD88368B3F5805F19D088
:10253000184B4367036943B1026852E8003F43F414
:10254000807342E800310029F6D1026802F10803E5
:1025500053E8003F43F08053083242E8003100293D
:10256000F3D1CFE70369002BE2D10B4B4367E1E7DF
:102570000369002BB8D1094B4367B7E7026852E8FB
:10258000003F43F0200342E800310029F6D1B9E7CB
:10259000691800081D1A0008E91B00084519000801
:1025A00038B5D0F88C30202B17D1C1B1CAB1002377
:1025B000C36603680C4CA3420CD05B6813F4000F95
:1025C00008D0046854E8003F43F0806344E80035D5
:1025D000002DF6D1FFF746FF00E0022038BD0120B4
:1025E000FCE70120FAE700BF00800040436E2BB9F2
:1025F0000123A0F86A30A0F86830704730B403684F
:102600009A68C2F342629968490F094D6B5CDB001E
:10261000084C615C93FBF1F3A0F86A30AB5CDB0023
:10262000A25C93FBF2F3A0F8683030BC704700BFA7
:10263000189000081090000870477047704790F895
:102640008430012B18D0012380F884302423C0F873
:10265000883003681A68196821F00101196022F0B6
:1026600000520023436601680A602022C0F88820D7
:1026700080F88430184670470220704738B590F8CB
:102680008430012B1DD00446012380F8843024239C
:10269000C0F8883003681D681A6822F001021A60C9
:1026A0000268936823F0604319439160FFF79EFF2F
:1026B00023681D602023C4F88830002084F884003B
:1026C00038BD0220FCE738B590F88430012B1DD0CE
:1026D0000446012380F884302423C0F8883003683E
:1026E0001D681A6822F001021A600268936823F0DC
:1026F000606319439160FFF779FF23681D60202311
:10270000C4F88830002084F8840038BD0220FCE73B
:1027100010B5032000F09CFB0F2001F01DFE10B14E
:102720000124204610BD0446FEF704F9F9E7000035
:10273000034A1368034909680B441360704700BFDC
:102740005C01002004000020014B1868704700BFA6
:102750005C01002038B50446FFF7F6FF0546B4F1EA
:10276000FF3F02D0044B1B681C44FFF7EDFF401BEA
:10277000A042FAD338BD00BF040000201E4B9B6866
:1027800003F00C03042B33D01B4B9B6803F00C03AA
:10279000082B2FD0184B9B6803F00C030C2B01D097
:1027A00000207047144BDA6802F00302D868C0F3C7
:1027B0000310431C032A11D01048B0FBF3F00E4B5A
:1027C000DB68C3F3062303FB00F00B4BDB68C3F3AA
:1027D000416301335B00B0FBF3F070470848B0FB86
:1027E000F3F0054BDB68C3F3062303FB00F0ECE7D3
:1027F0000248704702487047001002400024F4006D
:1028000000127A00014B1868704700BF0C000020CE
:1028100008B5FFF7F7FF054B9B68C3F30223044A93
:10282000D35C03F01F03D84008BD00BF0010024076
:102830002090000808B5FFF7E5FF054B9B68C3F340
:10284000C223044AD35C03F01F03D84008BD00BF75
:1028500000100240209000080F2303600B4B9A6881
:1028600002F0030242609A6802F0F00282609A6805
:1028700002F4E062C2609B68DB0803F4E06303617A
:10288000034B1B6803F00F030B60704700100240FE
:1028900000200240F0B583B00446036813F4002F13
:1028A00069D0AE4B9B6D13F0805F1ED1AB4B9A6D20
:1028B00042F080529A659B6D03F080530193019B17
:1028C0000126A74A136843F480731360FFF73CFFA7
:1028D0000546A34B1B6813F4807F08D1FFF734FF34
:1028E000401B0228F5D9032502E00026E9E7002570
:1028F00045BB9A4BD3F8903013F4407315D0226C3B
:102900009A4212D0954AD2F8903023F44073D2F80C
:10291000901041F48031C2F89010D2F8901021F458
:102920008031C2F89010C2F8903013F0010F10D12E
:1029300045B98A4AD2F8903023F44073216C0B4396
:10294000C2F89030C6B1854A936D23F080539365E9
:1029500012E0FFF7F9FE0746804BD3F8903013F0F2
:10296000020FE5D1FFF7F0FEC01B41F28833984219
:10297000F2D90325DCE70025236813F0010F08D006
:10298000764AD2F8883023F0030361680B43C2F81B
:102990008830236813F0020F08D0704AD2F88830CC
:1029A00023F00C03A1680B43C2F88830236813F0AE
:1029B000040F08D0694AD2F8883023F03003E16868
:1029C0000B43C2F88830236813F0080F08D0634A1D
:1029D000D2F8883023F0C00321690B43C2F8883055
:1029E000236813F0200F08D05C4AD2F8883023F413
:1029F000406361690B43C2F88830236813F0400FCD
:102A000008D0564AD2F8883023F44053A1690B43CA
:102A1000C2F88830236813F0800F08D04F4AD2F8EC
:102A2000883023F44043E1690B43C2F888302368BF
:102A300013F4807F08D0494AD2F8883023F4403319
:102A4000216A0B43C2F88830236813F4007F08D052
:102A5000424AD2F8883023F44023616A0B43C2F81B
:102A60008830236813F4806F0CD03C4AD2F8883049
:102A700023F44013A16A0B43C2F88830A36AB3F56C
:102A8000801F57D0236813F4006F0CD0334AD2F85C
:102A9000883023F44003E16A0B43C2F88830E36ACC
:102AA000B3F5800F4BD0236813F4805F0CD02B4A12
:102AB000D2F8883023F04073216B0B43C2F8883082
:102AC000236BB3F1807F3FD0236813F4005F0CD0F9
:102AD000224AD2F8883023F04063616B0B43C2F87E
:102AE0008830636BB3F1006F33D0236813F4804FE9
:102AF0000CD01A4AD2F8883023F04063A16B0B4304
:102B0000C2F88830A36BB3F1006F2BD0236813F4A5
:102B1000004F0CD0114AD2F8883023F04053E16BBB
:102B20000B43C2F88830E36BB3F1805F1FD02846B7
:102B300003B0F0BDD36843F48013D360A2E7D36839
:102B400043F48013D360AEE7D36843F48013D360BB
:102B5000BAE7D36843F48013D360C6E7001002409D
:102B600000700040D36843F48013D360CEE7D3688D
:102B700043F48033D360DAE7F0B583B0002362E03A
:102B800085685E000324B44025EA0405CC68B4409F
:102B90002C438460446824EA0C0C4C68C4F3001491
:102BA0009C4044EA0C0444605EE0DD08083550F8BF
:102BB000256003F007044FEA840C0F2404FA0CF498
:102BC00026EA040E0C6904FA0CF444EA0E0440F8F8
:102BD000254060E0052400E0002404FA0EF42C43B4
:102BE0000CF1020C554D45F82C40554CA568D443CA
:102BF00025EA02064F6817F4801F01D042EA050655
:102C00004F4DAE60ED6804EA05064F6817F4001FEB
:102C100001D042EA05064A4DEE606D6804EA0506F9
:102C20004F6817F4003F01D042EA0506444D6E603C
:102C30002D682C404E6816F4803F01D042EA05040E
:102C40003F4A146001330A6832FA03F474D04FF03B
:102C5000010C0CFA03FC1CEA0202F3D04C6804F0ED
:102C60000304013C012C8BD94C6804F00304032CB1
:102C70000CD0C4685D004FF0030C0CFA05FC24EA8C
:102C80000C0C8C68AC4044EA0C04C4604C6804F042
:102C90000304022C89D004684FEA430E4FF0030C62
:102CA0000CFA0EFC24EA0C0C4C6804F0030404FA41
:102CB0000EF444EA0C0404604C6814F4403FC1D0A4
:102CC000204C256E45F001052566246E04F00104B4
:102CD0000194019C4FEA930C0CF10205174C54F837
:102CE000255003F003044FEA840E0F2404FA0EF477
:102CF00025EA0405B0F1904F3FF46EAF124CA042AC
:102D000012D004F58064A04210D004F58064A04283
:102D10000ED004F58064A0420CD004F58064A0427B
:102D20003FF458AF062458E7012456E7022454E73D
:102D3000032452E7042450E703B0F0BD0000014033
:102D400000040140001002400004004803691942D9
:102D500001D001207047002070470AB1816170479F
:102D600081627047034690F82520D2B2022A09D02A
:102D70000422C2630120012283F82520002283F867
:102D80002420704701680A6822F00E020A60816CF4
:102D90000A6822F480720A6001680A6822F001025F
:102DA0000A60426C02F01F01006C01228A404260FE
:102DB000DA6C196D51605A6D42B1116821F480715D
:102DC00011609A6DD96D51600020D4E70020D2E7E0
:102DD00008B590F82530DBB2022B09D00423C36379
:102DE000012380F82530002280F82420184608BDF1
:102DF0000268136823F00E0313600268136823F05F
:102E000001031360826C136823F480731360436CB6
:102E100003F01F02016C012393404B60C36C026DF1
:102E20005A60436D33B11A6822F480721A60836D60
:102E3000C26D5A60012380F82530002380F82430C9
:102E4000836B13B198470020D1E70020CFE7000043
:102E5000074AD36823F4E0631B041B0C000200F450
:102E6000E060034343F0BF6343F40033D360704733
:102E700000ED00E000B5194BDB68C3F30223C3F19A
:102E8000070CBCF1040F28BF4FF0040C03F1040E33
:102E9000BEF1060F18D9033B4FF0FF3E0EFA0CFCB3
:102EA00021EA0C0199400EFA03F322EA03031943C5
:102EB00000280BDB0901C9B200F1604000F5614058
:102EC00080F800135DF804FB0023E5E700F00F0035
:102ED0000901C9B2024B1954F4E700BF00ED00E04C
:102EE00014ED00E0002807DB00F01F024009012379
:102EF0009340024A42F82030704700BF00E100E0F2
:102F0000034AD2F8883043F47003C2F8883070471F
:102F100000ED00E010B58CB0002409940A940B94E5
:102F20002022214601A803F0E5FC1F484FF0A043F2
:102F300003604FF4403343608460C46004614461C3
:102F400004238361047744770123036280F82440DB
:102F5000C462046380F83840C46380F8404000F0E5
:102F60008DF8C0B90023099309A90F4800F072FE3B
:102F7000A0B90E4B01930623029303937F2304937E
:102F8000042305930023069301A9074800F01CFAC7
:102F900038B90CB010BDFDF763FBE3E7FDF760FB4C
:102FA000E7E7FDF75DFBF4E760010020040060083F
:102FB00010B598B004460021139114911591169103
:102FC0001791442202A803F095FC2368B3F1A04FA7
:102FD00001D018B010BD4FF4004302934FF00053DE
:102FE000119302A8FFF756FCF0B9114BDA6C42F4CA
:102FF0000052DA64DA6C02F400520092009ADA6C41
:1030000042F00102DA64DB6C03F001030193019BDF
:1030100002231393032314930023159313A94FF052
:103020009040FFF7A9FDD4E7FDF71AFBDDE700BFED
:103030000010024038B50E4D284600F025FD0A214B
:10304000284600F035F9284600F0BAF984B228463F
:1030500000F0DEFD07EE904AB8EE670ADFED057A74
:1030600020EE270ADFED047A80EE270A38BD00BF84
:10307000600100203333534000F07F4530B583B00A
:1030800000230193002800F007810446C36D13B3A9
:1030900023689A6812F0005F05D09A6822F02042F7
:1030A00022F03F029A602268936813F0805F1FD17C
:1030B000936823F0104323F03F0343F08053936061
:1030C000764B1B689B09764AA2FB03239B090133BD
:1030D0005B00019309E0FFF76BFF0023236684F890
:1030E0005830D5E7019B013B0193019B002BF9D19F
:1030F0002268936813F0805F40F09680E36D43F0A0
:103100001003E365236E43F00103236601209368F7
:1031100013F0040300D00123E16D11F0100F40F013
:10312000B480002B40F0B180E36D23F4817343F051
:103130000203E365936813F0010F15D14FF0A0432C
:103140009B6813F0010300D00123564A926812F0E5
:10315000010200D00122134306D1636852498A68F4
:1031600022F47C1213438B60627FE36B43EA4233A9
:10317000E2681343A268134394F8242043EA02430D
:10318000012A53D0E26A22B102F47872216B0A4319
:1031900013432168CD68454A2A401343CB60226817
:1031A000136923F04063616B0B43136122689368DA
:1031B00013F0080300D001233BBB217F94F8383083
:1031C0005B0043EA8131D36823F4804323F0020398
:1031D0000B43D360236973B32268136943F48033CC
:1031E00013612268D2F8C03023F47F5323F03F03E9
:1031F00021690B43C2F8C03094F84030012B29D02C
:103200002268136923F0010313616369012B33D032
:103210002268136B23F00F031363E36D23F00303A2
:1032200043F00103E36535E0002070E7A26A013A4C
:1032300043EA4243A6E72268136923F4803313610B
:103240002268D2F8C03023F47F5323F03F03C2F842
:10325000C030D1E721680B6923F4FF6323F0040336
:10326000626CA56C2A43E56C2A43256D2A431343FF
:1032700043F001030B61C8E721680B6B23F00F03D8
:10328000226A013A13430B63C7E7E36D43F010036F
:10329000E365012003B030BD0120FBE70C000020F6
:1032A000632D3E0500010050000300500740F0FF71
:1032B0002DE9F04104460E463F4B9F6807F01F077B
:1032C0008569082D11D057B1052F08D0092F06D0D8
:1032D000394B9B6813F4604F2CD1042505E023681B
:1032E000DB6813F0010F1FD10425FFF72DFA80468C
:1032F00023681A682A4223D1B6F1FF3FF8D0FFF7BE
:1033000023FAA0EB0800B04201D8002EF0D12368C8
:103310001B682B42ECD1E36D43F00403E36500230B
:1033200084F85830032042E0E36D43F02003E36566
:1033300001203CE0C36D43F02003C365012036E06B
:10334000E26D42F40072E265DA6812F4406F11D166
:10335000627F7AB91A6812F0080F0BD0E26D22F47E
:103360008072E265E26D12F4805F03D1E26D42F09B
:103370000102E265114A934209D01A46934209D0EC
:1033800047B1052F06D0092F04D0D26803E04FF0D3
:10339000A042F3E7DA68082D06D012F4804F08D176
:1033A0000C221A60002002E008221A600020BDE80A
:1033B000F0810020FBE700BF000300500001005037
:1033C0000368186C70470000F0B583B000220192CA
:1033D00090F85820012A00F05E820346012280F80E
:1033E00058200568A86810F0040F09D0DA6D42F083
:1033F0002002DA650120002283F8582003B0F0BDD6
:103400004C683035220A920002F00C02A85804F0F1
:103410001F0E1F2404FA0EF420EA04000C68C4F303
:10342000846C0CFA0EFC40EA0C00A8501868826804
:1034300012F0040200D00122846814F0080400D0C5
:103440000124002A50D1002C4ED18D68B5F1004FD7
:1034500000F082800F6814307A0E920002F00402AD
:103460008658C7F3045E4FF0070C0CFA0EFC26EAF0
:103470000C0C05FA0EF54CEA0505855018684269F2
:1034800022F0004242614D691868C268C2F3C1026D
:10349000520005FA02F20E69042E75D0603050F821
:1034A0002670A84D3D400F6807F0F8473A43154392
:1034B00045F0004540F826501A680E698869603268
:1034C00052F8265025F08075284342F826001A68E5
:1034D0000D69087F012854D0603252F8250020F091
:1034E0000070044342F825401868826812F0010F0A
:1034F00017D10A68CD68D0F8B040C2F3120C24EAA4
:103500000C0405F0180C904D25FA0CF52A40C2F376
:1035100012022243C0F8B020C8688C4A904200F0E2
:103520009B800A688A490A4200F0AD81894989680E
:1035300001F0E070884CA24200F05C81874CA2420E
:1035400000F05881864CA24200F07A81854CA2425C
:1035500000F0888100204EE70D6814306A0E92005A
:1035600002F004028658C5F30455072707FA05F54B
:1035700026EA050585501868426942F0004242611A
:1035800081E74FF00074A7E7026E046EC4F3846411
:103590000A68C2F3120585BBC2F38462944234D038
:1035A0001C68626E606EC0F384600A68C2F3120524
:1035B00085BBC2F38462904234D01C68A26EA06EB8
:1035C000C0F384600A68C2F3120585BBC2F384624B
:1035D000904234D01C68E26EE06EC0F384600A68EA
:1035E000C2F3120585BBC2F3846290427FF47CAFC4
:1035F000E26E22F00042E26676E792FAA2F212B19F
:10360000B2FA82F2CAE72022C8E7026E22F0004234
:103610000266C5E792FAA2F212B1B2FA82F2CAE7E2
:103620002022C8E7626E22F000426266C5E792FA85
:10363000A2F212B1B2FA82F2CAE72022C8E7A26E61
:1036400022F00042A266C5E792FAA2F212B1B2FAE3
:1036500082F2CAE72022C8E71C680A68C2F3120592
:10366000002D38D1900E013000F01F0009288CBFCA
:1036700000200120002877D0002D3BD1900E013092
:10368000800600F0F840002D40D1960E013606F07D
:103690001F070126BE403043002D45D1920E013256
:1036A00002F01F0202EB420212050243886804F195
:1036B0001406550EAD0005F004057459C2F304520A
:1036C0004FF0070C0CFA02FC24EA0C0C90404CEA78
:1036D0000000705125E792FAA2F048B1B0FA80F0EC
:1036E000013000F01F0009288CBF00200120C1E735
:1036F0002020F5E792FAA2F030B1B0FA80F0013064
:10370000800600F0F840BEE72020F8E792FAA2F623
:1037100046B1B6FA86F6013606F01F06012707FA0B
:1037200006F6B8E72026F6E792FAA2F242B1B2FA1C
:1037300082F2013202F01F0202EB42021205B4E7EC
:103740002022F6E700F0FF03FFFF070000007F40A4
:103750000000088000030050000021C31000C0904A
:10376000000052C7000084CBCDB9900E0130800616
:1037700000F0F840FDB9960E013606F01F0701264D
:10378000BE4030432DBB920E013202F01F0202EB0D
:1037900042021E3A120542F00072024386E792FA94
:1037A000A2F030B1B0FA80F00130800600F0F840AD
:1037B000E0E72020F8E792FAA2F646B1B6FA86F6DC
:1037C000013606F01F06012707FA06F6D9E720267C
:1037D000F6E792FAA2F25AB1B2FA82F2013202F09C
:1037E0001F0202EB42021E3A120542F00072D4E7B9
:1037F0002022F3E711F4000F7FF4A4AE1A68B2F1AF
:10380000A04F01D00020F6E540F4000023498A686B
:1038100022F0E07210438860214A1268920921491F
:10382000A1FB02129209013202EB420292000192C4
:10383000019A1AB1019A013A0192F9E70020DAE5FA
:1038400011F0807F7FF482AE1968174A91421CD034
:1038500040F0807011498A6822F0E072104388605D
:103860000020C8E511F4800F11D119680E4A914269
:103870000FD040F480020948816821F0E0710A43CA
:1038800082600020B7E50020B5E50020B3E5002008
:10389000B1E50020AFE50220B0E500BF0003005015
:1038A0000C000020632D3E050001005070B5044659
:1038B00003689A6812F0040200D00122986810F0A0
:1038C000080000D001200AB900286BD0DA6812F095
:1038D000007F04D0A08B40F2011290424ED002290A
:1038E00010D023689A6812F0040F0BD09A6812F077
:1038F000020F07D19A6822F0004222F03F0242F004
:1039000010029A60012910D023689A6812F0080FFB
:103910000BD09A6812F0020F07D19A6822F0004289
:1039200022F03F0242F020029A60022934D003299B
:1039300034D10C25FEF708FF064623689B682B420E
:103940002ED0FEF701FF801B0528F6D923689B685F
:103950002B42F2D0E36D43F01003E365236E43F096
:103960000103236601201CE0E36D43F01003E365CF
:10397000236E43F001032366012012E00022196840
:1039800011F0400F04D108498A42EDD80132F6E720
:1039900040221A600121A4E70825CBE70425C9E7E6
:1039A000002070BD0020FCE7FFFF3FA330B583B0CF
:1039B0000023019303689A6812F0010F58D104465E
:1039C00099682D4A114219D19A6822F0004222F0DA
:1039D0003F0242F001029A60284B9B6813F4000FEB
:1039E0001CD0274B1B689B09264AA2FB03239B097B
:1039F000013303EB43039B0001930CE0C36D43F0E1
:103A00001003C365036E43F001030366012030E039
:103A1000019B013B0193019B002BF9D1FEF794FE22
:103A2000054623681A6812F0010F1FD19A6812F038
:103A3000010F07D19A6822F0004222F03F0242F0C3
:103A400001029A60FEF780FE431B022BE9D923682E
:103A50001B6813F0010FE4D1E36D43F01003E3653D
:103A6000236E43F001032366012002E0002000E002
:103A7000002003B030BD00BF3F00008000030050B5
:103A80000C000020632D3E0538B53A4B9D68036855
:103A90009B6813F0040F69D1044605F01F0590F8E8
:103AA0005830012B64D0012380F85830FFF77EFF97
:103AB000002857D1E36D23F4706323F0010343F42E
:103AC0008073E36523682C4A93422FD01A469342B1
:103AD00000D01DB9E26D22F48012E265E26D12F4AD
:103AE000805F26D0226E22F0060222661C221A6017
:103AF000002384F8583022681F4B9A421CD013468A
:103B00009A421CD0DDB1052D19D0092D17D0E26DD8
:103B100042F48012E265DB6813F0007F27D0E36D8A
:103B200023F4405343F48053E36520E04FF0A04278
:103B3000CDE700222266D9E74FF0A043E0E7D36843
:103B400013F0007F05D0E36D23F4405343F480531A
:103B5000E365936823F0004323F03F0343F004033D
:103B6000936004E0002384F8583000E0022038BD60
:103B70000220FCE7000300500001005038B5044665
:103B80000268936813F0020300D00123916811F0DA
:103B9000010F39D0002B39D1936803F00D03012BAD
:103BA00009D0E36D43F01003E365236E43F0010396
:103BB0002366012029E0936823F0004323F03F03AC
:103BC00043F002039360236803221A60FEF7BCFDF2
:103BD000054623689B6813F0010F13D0FEF7B4FD70
:103BE000401B0228F5D923689B6813F0010FF0D021
:103BF000E36D43F01003E365236E43F00103236696
:103C0000012002E0002000E0002038BD0020FCE799
:103C100090F85830012B1AD010B50446012380F8D3
:103C200058300321FFF742FE18B1002384F85830C2
:103C300010BD2046FFF7A2FF0028F6D1E36D23F464
:103C4000885323F0010343F00103E365EDE702200D
:103C50007047000090F85820012A7FD010B49DB022
:103C60000346012280F85820002218921992006819
:103C7000B0F1A04F39D000220192019A002A37D02A
:103C8000926812F0040200D00122806810F0040F44
:103C900054D1002A52D10A68002A32D0304CA2688E
:103CA00022F46042486893F838C040EA4C3002433E
:103CB000A2604FF0A042926812F0010200D00122EF
:103CC0002848806810F0010000D00120024341D153
:103CD000234CA26822F4716222F00F0208688968FE
:103CE00001430A43A26000202DE01E4A0192C4E76E
:103CF000DA6D42F02002DA65002283F858200120B4
:103D000024E017498A6822F460428A604FF0A0429A
:103D1000926812F0010200D001221249896811F064
:103D2000010100D001210A4316D10D498A6822F40D
:103D3000716222F00F028A60002004E0DA6D42F026
:103D40002002DA650120002283F858201DB05DF8BA
:103D5000044B70470020F6E70020F4E7022070478C
:103D60000003005000010050074B5A68074B1B68C6
:103D70000749A1FB03139B0C03FB00F0024B5B689C
:103D80009B1A8342FAD37047001000E00C00002019
:103D900083DE1B4338B50546002404E04FF47A70F7
:103DA000FFF7E2FF0134AC42F8D338BD00B587B06D
:103DB0000023019302930393049305934FF48063CC
:103DC0000193012302930223049301A90248FEF701
:103DD000D3FE07B05DF804FB0004004800B587B0CF
:103DE0000023019302930393049305934FF480639C
:103DF00001930123039301A90248FEF7BDFE07B01A
:103E00005DF804FB0004004808B5021E18BF01223B
:103E10004FF480610148FEF7A0FF08BD0004004890
:103E200008B54FF480610248FEF790FF08BD00BF5F
:103E30000004004800B583B0134AD2F8FC3043F0C8
:103E40008073C2F8FC30114B00225A601A6842F0AD
:103E500001021A6003F1C04303F50033DA6C42F04B
:103E60000202DA64DB6C03F002030193019BFFF7AB
:103E70009DFF0120FFF7C8FF4FF4FA60FFF78AFFAC
:103E800003B05DF804FB00BF00ED00E0001000E0AF
:103E90002DE9F04383B005460E46002400948DF8CA
:103EA0000440EFF311874FF0500383F31188BFF301
:103EB0006F8FBFF34F8FFFF779FF2046FFF7A4FF07
:103EC0001220FFF767FF0120FFF79EFF2820FFF772
:103ED0004BFFFFF783FFFFF7A3FF01280AD101344F
:103EE000B4F57A7F03D80120FFF73EFFF3E787F3AD
:103EF00011882AE00024FFF793FF58B90134B4F584
:103F00007A7F03D80120FFF72FFFF4E787F31188AA
:103F100001201AE00024FFF783FF01280AD10134B1
:103F2000B4F57A7F03D80120FFF71EFFF3E787F38C
:103F300011880AE04FF00009B9F1040F46D84FF09C
:103F4000000810E087F31188012003B0BDE8F0837A
:103F50002820FFF709FFFFF763FF012813D008F1BE
:103F600001085FFA88F8B8F1070F2AD80024FFF794
:103F700057FF0028ECD10134B4F57A7FE2D8012054
:103F8000FFF7F2FEF3E7C8F10702012303FA02F29A
:103F900009F108030DEB030111F8083C134301F884
:103FA000083C0024FFF73CFF0128D8D10134B4F5C8
:103FB0007A7F03D80120FFF7D7FEF3E787F3118854
:103FC000C3E709F101095FFA89F9B5E787F31188B9
:103FD0009DF804009DF800109DF801300B449DF8F9
:103FE000022013449DF803402344DBB2984203D1DE
:103FF00031702A700020A8E70120A6E708B501204B
:1040000001F0ACFFFBE7000000B58BB02CE007220D
:104010002A4902A802F024FD002840D004222849A1
:1040200002A802F01DFD002842D1264BD3ED007AF4
:10403000BDEEE77AF8EEC76A77EEE67ADFED226A40
:1040400067EEA67AF6EE006A77EEA67A1F4B1B782B
:1040500000931F4B1B78FDEEE77A17EE902A17EEC0
:10406000101A1C4802F04EFC4FF0FF33002202A948
:104070001948006802F0A9F80028F5D1062217496E
:1040800002A802F0EDFC0028C1D1154901230B70F4
:1040900000231A461348006802F055F8E4E7104977
:1040A00000220A7013460F48006802F04CF8DBE764
:1040B00002A90D4802F026FCD6E700BF30900008A8
:1040C00038900008940000200000C84298000020AA
:1040D0009A00002040900008D0010020289000089D
:1040E00099000020CC0100207090000800B583B03A
:1040F0002EE0FF231F4A13701F4A13701F4B1868CE
:1041000001F0B0FF1E4BD3ED007ABDEEE77AF8EE7A
:10411000C76A77EEE67ADFED1B6A67EEA67AF6EEFF
:10412000006A77EEA67AFDEEE77A17EE902A002A6B
:1041300000DA5242104B1B7800930E4B1B7817EE9F
:10414000101A114802F0DEFB4FF4FA7001F006FF7E
:10415000FEF770FF0A4B83ED000A4FF0FF31074B6B
:10416000186801F053FF04490248FFF791FE002848
:10417000C4D0BEE79A00002098000020E80100208B
:10418000940000200000C8428890000800B583B069
:1041900009E00720FCF71EFC114802F039FC114B26
:1041A000186801F05FFF4FF0FF3300220DF10701A7
:1041B0000D48006802F009F80028F4D14FF0FF31F3
:1041C000084B186801F022FF9DF80730012BE0D161
:1041D0000720FCF7EDFB054802F01AFCDFE700BF03
:1041E000B8900008EC010020CC010020A890000845
:1041F00000B58FB01AE05B421B4A127801921B4A4D
:104200001278009217EE102A194902A802F008FC51
:104210001820FCF779FE02A91820FCF761FE154B67
:10422000186801F01FFFC82001F098FE4FF0FF3121
:10423000104B186801F0EAFE0F4BD3ED007ABDEE8B
:10424000E77AF8EEC76A77EEE67ADFED0C6A67EE9A
:10425000A67AF6EE006A77EEA67AFDEEE77A17EE1A
:10426000903A002BC7DBC7E7980000209A00002097
:10427000C8900008EC010020940000200000C84213
:1042800008B51E4801F078FE1D4B18601D4801F06E
:1042900073FE1D4B18601D4A0121082001F008FF24
:1042A0001B4B18601B4A2021102001F001FF1A4B04
:1042B00018601A4A00211A4801F0F2FD194B1860E3
:1042C000194A0021194801F0EBFD194B1860194AF1
:1042D0000021194801F0E4FD184B1860184A00212C
:1042E000184801F0DDFD184B1860184A00211848E5
:1042F00001F0D6FD174B186008BD00BF5C920008A6
:10430000EC0100204C920008E801002068910008B0
:10431000CC01002080910008D001002028920008E4
:10432000FD3F0008E4010020049200080940000855
:10433000E0010020E0910008ED400008DC010020D1
:10434000BC9100088D410008D80100209891000818
:10435000F1410008D401002030B589B004461E4B5D
:104360009A6D42F004029A659B6D03F00403019379
:10437000019B02A903A8FEF76FFAFEF749FA03466C
:104380001648A0FB03239B0C013B1548154A02600D
:1043900040F2E732C2604360002303618360FDF7AF
:1043A00035F8054610B1284609B030BD0C48FCF779
:1043B0008DFE05460028F6D11E20FEF793FD0F2C3A
:1043C00001D90125EFE7002221461E20FEF752FD0C
:1043D000054B1C60E7E700BF0010024083DE1B4373
:1043E000F0010020000800400800002000F1080350
:1043F00043604FF0FF328260C360036100230360BB
:10440000704700230361704743684B609A688A6075
:10441000516099600861036801330360704730B4EC
:104420000D68B5F1FF3F11D000F108031C465B6831
:104430001A68AA42FAD963684B6099608C6061601F
:10444000086103680133036030BC70470469F2E718
:104450000369416882688A60416851605A68824293
:1044600006D0002202611A68013A1A601868704783
:1044700082685A60F5E70346406A18B11B6B1868FA
:10448000C0F13800704710B5044602F083F8A26B03
:10449000E36B9A4204D0002402F09EF8204610BD3F
:1044A0000124F9E710B5044602F074F8A36B23B9B0
:1044B000012402F091F8204610BD0024F9E770B500
:1044C00004461546866B026C5AB903681BB100207E
:1044D0000136A66370BD806801F0D8F90023A3609F
:1044E000F6E76DB9406802F0F7F9226C636813448F
:1044F0006360A268934219D3236863602846E7E7A4
:10450000C06802F0E9F9226C5142E3689B1AE3604B
:104510002268934202D2A3680B44E360022D01D0CB
:104520000020D5E726B1013E0020D1E72846CFE79D
:104530000020CDE70346026C6AB110B50846D96881
:104540001144D9609C68A14201D31968D960D96827
:1045500002F0C2F910BD704738B5054602F01AF8EE
:1045600095F8454064B201E0013C64B2002C0ADDDC
:104570006B6A43B105F1240001F08CF80028F3D0F8
:1045800001F01CF9F0E7FF2385F8453002F024F82C
:1045900002F000F895F8444064B201E0013C64B2D6
:1045A000002C0ADD2B6943B105F1100001F072F80F
:1045B0000028F3D001F002F9F0E7FF2385F844303A
:1045C00002F00AF838BD38B5E0B10D46044601F0F6
:1045D000E1FF2368E26B216C01FB0230A060002048
:1045E000A0636360013A02FB0133E360FF2384F8B8
:1045F000443084F84530FDB9236963B901F0ECFF1C
:10460000012038BD4FF0500383F31188BFF36F8F43
:10461000BFF34F8FFEE704F1100001F03BF80028D4
:10462000ECD04FF0E0234FF08052C3F8042DBFF3DD
:104630004F8FBFF36F8FE1E704F11000FFF7D6FE55
:1046400004F12400FFF7D2FED8E738B51D46049CDC
:104650000B4649B92460E063236401212046FFF73B
:10466000B2FF84F84C5038BD2260F4E740B94FF0F7
:10467000500383F31188BFF36F8FBFF34F8FFEE7B3
:1046800010B584B01C46844653B192B189B94FF03D
:10469000500383F31188BFF36F8FBFF34F8FFEE793
:1046A0004FF0500383F31188BFF36F8FBFF34F8F29
:1046B000FEE76AB150230393039B502B13D04FF0B6
:1046C000500383F31188BFF36F8FBFF34F8FFEE763
:1046D0000029EFD04FF0500383F31188BFF36F8FA1
:1046E000BFF34F8FFEE7039B012384F8463000940D
:1046F0009DF818306046FFF7A8FF204604B010BDB3
:1047000040B94FF0500383F31188BFF36F8FBFF3AD
:104710004F8FFEE7F0B583B00D461446064601FB09
:1047200000F0503001F00EFE074650B1002380F833
:1047300046300090234600F1500229463046FFF7EC
:1047400084FF384603B0F0BDF0B585B0019288B162
:104750000F461D460446B1B1022D20D1E36B012B5B
:104760001DD04FF0500383F31188BFF36F8FBFF359
:104770004F8FFEE74FF0500383F31188BFF36F8F25
:10478000BFF34F8FFEE7036C002BE5D04FF05003D3
:1047900083F31188BFF36F8FBFF34F8FFEE701F0F4
:1047A00019F8064658B9019B002B48D04FF050032A
:1047B00083F31188BFF36F8FBFF34F8FFEE700269F
:1047C0003DE02A4639462046FFF779FE636A7BB909
:1047D00048B14FF0E0234FF08052C3F8042DBFF3EF
:1047E0004F8FBFF36F8F01F0F7FE012005B0F0BDD2
:1047F00004F1240000F04EFF0028F4D04FF0E02335
:104800004FF08052C3F8042DBFF34F8FBFF36F8F6B
:10481000E9E701F0E1FE0020E8E702A800F080FFF0
:10482000012619E0002384F8443021E0002384F8B5
:10483000453023E02046FFF78FFE00F00BFE01F02D
:10484000A9FEA26BE36B9A42BBD3022DB9D0019BA8
:10485000002BDED0002EE0D001F0BEFE00F060FDA7
:1048600001F098FE94F8442052B2B2F1FF3FD9D043
:1048700094F8452052B2B2F1FF3FD7D001F0ACFE20
:1048800001A902A800F058FFD8B92046FFF7FBFDA8
:104890000028CFD0019904F1100000F0C7FE204697
:1048A000FFF75AFE00F0D6FD0028C8D14FF0E023F4
:1048B0004FF08052C3F8042DBFF34F8FBFF36F8FBB
:1048C000BDE72046FFF748FE00F0C4FD00208DE75D
:1048D00048B108B5002181600160C1600B460A46FD
:1048E000FFF732FF08BD704710B5024600210120D6
:1048F000FFF706FF0446FFF7EBFF204610BD10B59B
:1049000082B00B460090002211460120FFF7AEFE58
:104910000446FFF7DDFF204602B010BD38B538B1C0
:104920000446856800F050FF85420AD0002038BD5B
:104930004FF0500383F31188BFF36F8FBFF34F8F96
:10494000FEE7E368013BE3600BB10120EFE71A46A5
:1049500019462046FFF7F8FE0120E8E72DE9F84365
:1049600090B10F4616461C460546B1B1022C20D127
:10497000EB6B012B1DD04FF0500383F31188BFF375
:104980006F8FBFF34F8FFEE74FF0500383F3118813
:10499000BFF36F8FBFF34F8FFEE7036C002BE5D0A3
:1049A0004FF0500383F31188BFF36F8FBFF34F8F26
:1049B000FEE701F015FFEFF311894FF0500383F389
:1049C0001188BFF36F8FBFF34F8FAA6BEB6B9A42C7
:1049D00006D3022C04D0002089F31188BDE8F883A7
:1049E00095F845804FFA88F8AB6B22463946284641
:1049F000FFF765FDB8F1FF3F06D008F101035BB298
:104A000085F845300120E7E76B6A0BB90120E3E741
:104A100005F1240000F03EFE18B126B101203060FF
:104A2000DAE70120D8E70120D6E7F0B585B001929A
:104A300090B10F460446C1B100F0CCFE064600BB63
:104A4000019B002B5ED04FF0500383F31188BFF31E
:104A50006F8FBFF34F8FFEE74FF0500383F3118842
:104A6000BFF36F8FBFF34F8FFEE7036C002BE3D0D4
:104A70004FF0500383F31188BFF36F8FBFF34F8F55
:104A8000FEE700263EE039462046FFF753FD013D94
:104A9000A563236923B901F09FFD012005B0F0BD96
:104AA00004F1100000F0F6FD0028F4D04FF0E023F0
:104AB0004FF08052C3F8042DBFF34F8FBFF36F8FB9
:104AC000E9E701F089FD0020E8E702A800F028FEF0
:104AD000012621E0002384F8443029E0002384F8F3
:104AE00045302BE02046FFF737FD00F0B3FC09E02E
:104AF0002046FFF731FD00F0ADFC2046FFF7D2FC69
:104B000000283FD101F046FDA56B002DBBD1019BD4
:104B1000002BD6D0002ED8D001F05EFD00F000FCB6
:104B200001F038FD94F844305BB2B3F1FF3FD1D0CF
:104B300094F845305BB2B3F1FF3FCFD001F04CFDAC
:104B400001A902A800F0F8FD0028D1D12046FFF706
:104B5000A9FC0028C6D0019904F1240000F066FDEC
:104B60002046FFF7F9FC00F075FC0028CAD14FF091
:104B7000E0234FF08052C3F8042DBFF34F8FBFF3F3
:104B80006F8FBFE7002089E770B584B0019158B1FD
:104B90000446036C8BB14FF0500383F31188BFF3CD
:104BA0006F8FBFF34F8FFEE74FF0500383F31188F1
:104BB000BFF36F8FBFF34F8FFEE700F00BFE05468C
:104BC00050B9019B5BB14FF0500383F31188BFF3E1
:104BD0006F8FBFF34F8FFEE70026354655E0064640
:104BE00053E0013BA36323683BB123694BB901F058
:104BF000F3FC0126304604B070BD00F0DFFEA0607B
:104C0000F3E704F1100000F045FD0028EFD04FF06D
:104C1000E0234FF08052C3F8042DBFF34F8FBFF352
:104C20006F8FE4E746B14FF0500383F31188BFF371
:104C30006F8FBFF34F8FFEE701F0CEFCDAE702A8DB
:104C400000F06EFD01252AE0002384F8443032E0B4
:104C5000002384F8453034E001F09CFCA06800F0AB
:104C6000C9FD064601F0B8FC3BE02046FFF774FCA6
:104C700000F0F0FB09E02046FFF76EFC00F0EAFBD5
:104C80002046FFF70FFC002842D101F083FCA36B04
:104C9000002BA6D1019B002BC4D0002DCFD001F05A
:104CA0009BFC00F03DFB01F075FC94F844305BB2D6
:104CB000B3F1FF3FC8D094F845305BB2B3F1FF3F8A
:104CC000C6D001F089FC01A902A800F035FD00283A
:104CD000D1D12046FFF7E6FB0028C6D02368002B81
:104CE000BAD0019904F1240000F0A0FC2046FFF79F
:104CF00033FC00F0AFFB0028C7D14FF0E0234FF0AA
:104D00008052C3F8042DBFF34F8FBFF36F8FBCE702
:104D10000EB900266EE701F03DFC2046FFF7ABFB25
:104D20000146A06800F0FAFD01F056FCF1E780B101
:104D300070B50C460546866800F046FD864211D0E7
:104D400021462846FFF720FF80B1EB680133EB6076
:104D50000CE04FF0500383F31188BFF36F8FBFF364
:104D60004F8FFEE7EB680133EB60012070BD2DE94A
:104D7000F843B0B10D4616460446D9B101F030FDF6
:104D8000EFF311884FF0500383F31188BFF36F8F57
:104D9000BFF34F8FA76BCFB9002088F31188BDE810
:104DA000F8834FF0500383F31188BFF36F8FBFF385
:104DB0004F8FFEE7036C002BE0D04FF0500383F3DE
:104DC0001188BFF36F8FBFF34F8FFEE794F84490C5
:104DD0004FFA89F929462046FFF7ACFB013FA7634C
:104DE000B9F1FF3F06D009F101035BB284F844300A
:104DF0000120D2E723690BB90120CEE704F11000AE
:104E000000F048FC18B126B101203060C5E7012050
:104E1000C3E70120C1E700000023072B0CD8074A95
:104E200052F833200AB10133F7E7044A42F833104D
:104E300002EBC30358607047704700BF3C0200207C
:104E400070B504460D46164601F0A4FB94F84430B4
:104E50005BB2B3F1FF3F0DD094F845305BB2B3F1D4
:104E6000FF3F0BD001F0B8FBA36B5BB12046FFF70F
:104E700073FB70BD002384F84430EDE7002384F811
:104E80004530EFE73246294604F1240000F0E6FB06
:104E9000ECE70000084B1B681B6823B9074B4FF079
:104EA000FF321A607047044B1B68DB68DB685A6886
:104EB000024B1A60704700BF8002002028070020C4
:104EC0002DE9F04780460D4617469946089EDDF8C5
:104ED00024A00A9C9200A521206B01F00BFD236BFE
:104EE00007F18042013A03EB820727F00707B5B3C9
:104EF0004FF0000CBCF10F0F0BD815F80C2004EB91
:104F00000C0383F8342015F80C3013B10CF1010CAC
:104F1000F0E7002384F84330372E00D93726E662C5
:104F2000E66400252565201DFFF76BFA04F11800E3
:104F3000FFF767FA2461C6F13806A6616462656509
:104F400084F858504A464146384601F0F5FA206048
:104F5000BAF1000F01D0CAF80040BDE8F087002385
:104F600084F83430D8E7000038B5002407E004EBBB
:104F7000840293000E481844FFF738FA0134372CA6
:104F8000F5D90C4D2846FFF731FA0B4C2046FFF7B8
:104F90002DFA0A48FFF72AFA0948FFF727FA0948C5
:104FA000FFF724FA084B1D60084B1C6038BD00BF9A
:104FB00088020020FC060020100700203407002093
:104FC000600700204C07002080020020840200209F
:104FD00010B5044601F0DEFA224A1368013313606B
:104FE000214B1B685BB1214B1B686BB91E4B1B68C7
:104FF000DA6AE36A9A4207D81B4B1C6004E01A4B3A
:105000001C601368012B29D0194A136801331360FF
:105010006364E06A174B1B68984201D9154B18600E
:1050200000EB8000211D144B03EB8000FFF7ECF92F
:1050300001F0D2FA0D4B1B687BB10B4B1B68DA6A8F
:10504000E36A9A4209D24FF0E0234FF08052C3F84E
:10505000042DBFF34F8FBFF36F8F10BDFFF784FF99
:10506000D2E700BFE80600207C02002048070020AD
:10507000F4060020F80600208802002010B504463F
:1050800090F8593063B1012B11D0022B0ED04FF0A4
:10509000500383F31188BFF36F8FBFF34F8FFEE789
:1050A000006B01F0CDF9204601F0CAF910BD01F006
:1050B000C7F9FBE70F4B1B68D3B110B501F06AFAD3
:1050C0000D4BDB68DC68201DFFF7C2F90B4A136843
:1050D000013B1360074A1368013B136001F07CFA3F
:1050E0002046FFF7CBFF034B1B68002BE6D110BD1A
:1050F000704700BFEC06002060070020E806002093
:1051000008B5FFF7D7FF074B1B68012BF9D94FF004
:10511000E0234FF08052C3F8042DBFF34F8FBFF34D
:105120006F8FEEE78802002070B504460D46174BDE
:105130001E68174B18680430FFF78AF9B4F1FF3F77
:105140000DD03444124B1B685C60A64210D9114B41
:1051500018680F4B19680431FFF761F970BD002D15
:10516000EFD00B4B196804310B48FFF74DF9F5E709
:105170000A4B1868064B19680431FFF750F9084BC1
:105180001B68A342EAD9064B1C60E7E774070020BE
:105190007C020020840200204C07002080020020B6
:1051A0002807002030B587B00B9C7CB10C9DB5B1B1
:1051B0005C250495049D5C2D1AD04FF0500383F3B9
:1051C0001188BFF36F8FBFF34F8FFEE74FF050038F
:1051D00083F31188BFF36F8FBFF34F8FFEE74FF05C
:1051E000500383F31188BFF36F8FBFF34F8FFEE738
:1051F000049D0C9D2C63022485F8594000240394DF
:10520000029505AC01940A9C0094FFF759FE0C9896
:10521000FFF7DEFE059807B030BD2DE9F04385B0FD
:105220000746884614461E46900001F08BF800B3EE
:1052300081465C2001F086F80546B0B1C0F8309098
:10524000E5B1002385F85930039302950D9B019336
:105250000C9B00933346224641463846FFF730FE0A
:105260002846FFF7B5FE012005E0484601F0E8F8C2
:10527000E6E74FF0FF3005B0BDE8F0834FF0FF30B8
:10528000F9E7000010B588B000240594069407AA39
:1052900006A905A800F0DAFF059B0293069B01937F
:1052A00000942346079A18491848FFF77BFF184BCC
:1052B000186040B100F0FCFB012806D0B0F1FF3FC0
:1052C00018D008B010BD0020F6E74FF0500383F36C
:1052D0001188BFF36F8FBFF34F8F0E4B4FF0FF322C
:1052E0001A600D4B01221A600C4B00221A6001F06B
:1052F000EBF9E6E74FF0500383F31188BFF36F8FAC
:10530000BFF34F8FFEE700BF6C9200080151000809
:1053100024070020280700204807002074070020E9
:10532000024A136801331360704700BFF006002083
:10533000014B1868704700BF74070020F8B53A4B5E
:105340001B68002B69D1394B1D6801351D60C5B93B
:10535000374B1B681B6843B14FF0500383F3118830
:10536000BFF36F8FBFF34F8FFEE7314A1168314BA8
:10537000186810601960304A136801331360FFF732
:1053800089FD2E4B1B68AB423DD900272C4B1B6877
:10539000DB6A03EB83039A002A4B9B58012B00D94D
:1053A0000127294B1B68002B3CD001273AE001273D
:1053B0001F4B1B681B6843B31D4B1B68DB68DC6815
:1053C00063689D4226D3261D3046FFF741F8A36A45
:1053D0001BB104F11800FFF73BF8E36A1B4A12689F
:1053E000934201D9194A136003EB83039A003146B3
:1053F00014481044FFF708F8E26A114B1B68DB6A97
:105400009A42D4D2D4E70027D2E70C4B4FF0FF32B8
:105410001A60BBE7094A1360B8E70D4A1368013305
:10542000136000273846F8BDF006002074070020FE
:1054300080020020840200202C0700202807002082
:105440007C0200208802002078070020F806002057
:105450003007002038B5354B1B6843B94FF0500377
:1054600083F31188BFF36F8FBFF34F8FFEE701F017
:1054700091F82E4B1A68013A1A601B68002B4FD125
:105480002B4B1B680BB900244BE00024294B1B68F5
:105490001BB3284BDB68DC6804F11800FEF7D8FF6B
:1054A000251D2846FEF7D4FFE06A234B1B6898426F
:1054B00001D9214B186000EB800029461F4B03EBFC
:1054C0008000FEF7A1FFE26A1D4B1B68DB6A9A426F
:1054D000DCD31C4B01221A60D8E70CB1FFF7DAFCD1
:1054E000194B1C6884B9174B1C68D4B14FF0E023EA
:1054F0004FF08052C3F8042DBFF34F8FBFF36F8F6F
:1055000001240EE0013C07D0FFF718FF0028F9D076
:105510000C4B01221A60F5E70B4B00221A60E2E700
:10552000002401F059F8204638BD00BFF0060020E5
:10553000E806002034070020F8060020880200203A
:105540007C020020780700203007002010B5A8B1A9
:105550000446104B1B6843B14FF0500383F311888E
:10556000BFF36F8FBFF34F8FFEE7FFF7D9FE002128
:105570002046FFF7D9FDFFF76DFF48B94FF0E02354
:105580004FF08052C3F8042DBFF34F8FBFF36F8FDE
:1055900010BD00BFF00600201F4B1B681BB11F4B46
:1055A00001221A6070471D4B00221A601C4B1B68B9
:1055B00003EB83018A001B498A585AB90BB1013B9E
:1055C000F6E74FF0500383F31188BFF36F8FBFF3FB
:1055D0004F8FFEE703EB830082000A445068406867
:1055E000506003EB830C4FEA8C020832114488426E
:1055F0000BD003EB830291000A4A0A445268D16837
:10560000094A1160064A136070474068624691007B
:10561000044A0A445060ECE7F006002078070020B6
:10562000F8060020880200207C02002058B110B546
:105630000C46094A11681831FEF7F1FE0121204697
:10564000FFF772FD10BD4FF0500383F31188BFF3D5
:105650006F8FBFF34F8FFEE77C02002038B570B12B
:105660000D4614460A4A11681831FEF7CDFE0CB1FA
:105670004FF0FF3521462846FFF756FD38BD4FF065
:10568000500383F31188BFF36F8FBFF34F8FFEE793
:105690007C02002038B5C368DC6824B304F1180527
:1056A0002846FEF7D5FE184B1B682BBB251D284648
:1056B000FEF7CEFEE06A154B1B68984201D9134BEA
:1056C000186000EB80002946114B03EB8000FEF7C9
:1056D0009BFEE26A0F4B1B68DB6A9A4211D90120DC
:1056E0000D4B186038BD4FF0500383F31188BFF3A2
:1056F0006F8FBFF34F8FFEE729460848FEF784FE01
:10570000E7E70020EEE700BFF0060020F8060020E3
:10571000880200207C020020780700203407002047
:10572000034B1B680360034B1B684360704700BF5B
:105730002C07002074070020F8B5C8B10C460546B8
:10574000F9B100F027FF1B4B19686B68C81A226873
:10575000B2F1FF3F26D0184E36682F68B74201D00D
:105760008B4224D9824215D80023236001241AE0F9
:105770004FF0500383F31188BFF36F8FBFF34F8F48
:10578000FEE74FF0500383F31188BFF36F8FBFF331
:105790004F8FFEE75B1A134423602846FFF7C0FFD4
:1057A000002400E0002400F017FF2046F8BD01248B
:1057B000F9E700BF740700202C070020014B0122ED
:1057C0001A60704778070020014B1868704700BFC7
:1057D0007C020020054B1B6833B1054B1B680BB1E5
:1057E00000207047022070470120704748070020C2
:1057F000F006002000283ED038B50446C36A204A8F
:105800001268D26A93422ED28269002A05DB1C4AB2
:105810001268D26AC2F138028261616903EB8303C4
:10582000184A02EB8303994205D0154B1B68DB6ACB
:10583000E362012038BD251D2846FEF709FE104B06
:105840001B68D86AE062104B1B68984201D90E4B66
:10585000186000EB800029460A4B03EB8000FEF73E
:10586000D3FD0120E6E7C26C054B1B68DB6A9A4258
:1058700003D30020DEE7002070470120DAE700BFF5
:105880007C02002088020020F806002000283BD07F
:1058900038B504461E4B1B68834208D04FF05003B6
:1058A00083F31188BFF36F8FBFF34F8FFEE7036D54
:1058B00043B94FF0500383F31188BFF36F8FBFF3E9
:1058C0004F8FFEE7013B0365C16AC26C91421DD058
:1058D0000BB1002038BD051D2846FEF7B9FDE06C70
:1058E000E062C0F13803A3610A4B1B68984201D9FA
:1058F000084B186000EB80002946074B03EB800043
:10590000FEF782FD0120E5E7002070470020E1E777
:105910007C020020F806002088020020002846D0E3
:1059200038B50446036D43B94FF0500383F3118833
:10593000BFF36F8FBFF34F8FFEE7C26C8A4200D276
:105940000A46E16A914201D0012B00D038BD184BC4
:105950001B68A34222D0E262A369002B02DBC2F1E2
:105960003802A261626901EB8101124B03EB8101F4
:105970008A42EBD1251D2846FEF76AFDE06A0E4BF0
:105980001B68984201D90C4B186000EB8000294637
:10599000084B03EB8000FEF737FDD7E74FF05003CD
:1059A00083F31188BFF36F8FBFF34F8FFEE770470C
:1059B0007C02002088020020F8060020054B1B68AE
:1059C00023B1044B1A68136D01331365014B18683A
:1059D000704700BF7C020020064B1A6813682BB981
:1059E0000123036023B9D368186870470023F8E7E0
:1059F000002070477C07002008B54160006191429B
:105A00000CD8D21A83699A4201D3012008BD011D26
:105A1000094B1868FEF703FD0020F7E79A4201D210
:105A2000994206D2011D054B1868FEF7F8FC0020CC
:105A3000ECE70120EAE700BF800700207C07002098
:105A400030B583B000F0A6FD114B1B681BB100F010
:105A5000C3FD03B030BD0F4D2846FEF7C7FC0E4C0A
:105A60002046FEF7C3FC0D4B1D600D4B1C60002350
:105A700000930C4B0C4A10210A20FEF7F7FD044B53
:105A800018600028E3D00949FFF7C6F9DFE700BF37
:105A9000A008002024080020380800207C070020EF
:105AA000800700205008002084070020749200081E
:105AB00010B588B0FFF7C4FF124B1B68CBB10024B0
:105AC0000594069407AA06A905A800F0CBFB059B40
:105AD0000293069B0193022300932346079A0A49E7
